:020000040000fa
:020000040040ba
:10000000f8ff4520ed054000210b4000230b400088
:10001000270b4000290b40002b0b40000000000084
:100020000000000000000000000000001b0b40006a
:10003000250b4000000000001b0b40001b0b400084
:100040001b0b40001b0b40001b0b40001b0b400018
:100050001b0b40001b0b40001b0b40001b0b400008
:100060001b0b4000000000001b0b40001b0b40005e
:100070001b0b40001b0b40001b0b40001b0b4000e8
:100080001b0b40001b0b40001b0b40001b0b4000d8
:100090001b0b40001b0b40001b0b40001b0b4000c8
:1000a0001b0b40001b0b40001b0b40001b0b4000b8
:1000b0001b0b40001b0b40001b0b40001b0b4000a8
:1000c0001b0b40001b0b40001b0b40001b0b400098
:1000d0001b0b40001b0b40001b0b40001b0b400088
:1000e0001b0b40001b0b40001b0b40001b0b400078
:1000f0001b0b40001b0b40001b0b40001b0b400068
:100100001b0b40001b0b40001b0b40001b0b400057
:100110001b0b40001b0b4000000000000000000013
:100120001b0b40001b0b40001b0b40001b0b400037
:100130001b0b40001b0b40001b0b40001b0b400027
:100140001b0b40001b0b40001b0b40001b0b400017
:100150001b0b40001b0b40001b0b40001b0b400007
:080160001b0b40001b0b4000cb
:020000040000fa
:020000040040ba
:10016800f8b500bff8bc08bc9e467047e10a4000dd
:100178006d094000f8b500bff8bc08bc9e46704742
:0401880049094000e1
:020000040000fa
:020000040040ba
:10018c00280440201c000000000000004404402013
:10019c0004000000000000000000402028040000c3
:1001ac000100000000000000ec024020540340203d
:1001bc00bc03402000000000000000000000000014
:1001cc000000000000000000000000000000000023
:1001dc000000000000000000000000000000000013
:1001ec000000000000000000000000000000000003
:1001fc0000000000000000000000000000000000f3
:10020c0000000000000000000000000000000000e2
:10021c0000000000000000000000000000000000d2
:10022c0000000000000000000000000000000000c2
:10023c0000000000000000000000000000000000b2
:10024c0000000000000000000000000001000000a1
:10025c00000000000e33cdab34126de6ecde050071
:10026c000b00000000000000000000000000000077
:10027c000000000000000000000000000000000072
:10028c000000000000000000000000000000000062
:10029c000000000000000000000000000000000052
:1002ac000000000000000000000000000000000042
:1005dc000000000022222222222222222222222277
:020000040000fa
:020000040040ba
:1005ec00f8b5544b03b19847534b03b19847eff30d
:1005fc00108172b6514ad2f8883043f47003c2f8b5
:10060c008830bff34f8fbff36f8f01b962b64c4a7e
:10061c004c4b5a609a6812f0010ffbd0494bdb68c7
:10062c0013f4c07f13d00c22474b1a60474a454b3a
:10063c005a609a6812f0010ffbd0454a414b5a6040
:10064c009a6812f0010ffbd0424a434b1a60bff379
:10065c004f8fbff36f8f394cd4f8903223f00103d6
:10066c00c4f89032d4f8943223f00103c4f89432d5
:10067c00bff34f8fbff36f8f00f016f9374b23f09a
:10068c007f03a360364b9847636913f4003f12d184
:10069c00bff34f8fbff36f8f0022c4f85022bff30c
:1006ac004f8fbff36f8f626942f400326261bff308
:1006bc004f8fbff36f8f214b5b6913f4803f2fd1aa
:1006cc001e4b0022c3f88420bff34f8fd3f8805009
:1006dc00c5f34e36c5f3c90577014fea857c43f661
:1006ec00e07e184607ea0e0462462b4642ea0401f5
:1006fc00c0f86012013b02f14042b3f1ff3ff5d16b
:10070c00013e203fb6f1ff3fecd1bff34f8f0b4ab8
:10071c00536943f480335361bff34f8fbff36f8f33
:10072c00104b03b19847104b03b1984700f0eaf90e
:10073c00fee700bf000000000000000000ed00e03c
:10074c000d00005a000c0e40440440200c08005ac6
:10075c000c07005a010000a500180e4000004000d4
:0c076c00150a4000000000000000000022
:020000040000fa
:020000040040ba
:100778002de9f047254c2568d5f8484106468846b6
:1007880092469946c4b360681f2817dc431c76b1ab
:1007980004eb80050122c5f888a0d4f888118240ae
:1007a8001143022ec4f88811c5f808911ed00230f2
:1007b800636044f820800020bde8f087144b03b341
:1007c8004ff4c870aff300800446d0b1d5f8483173
:1007d800002780e88800c5f8484138460123c4f856
:1007e8008871c4f88c71002ee1d0d1e7d4f88c114f
:1007f8000a43c4f88c21dae705f5a674c5f8484120
:10080800c1e74ff0ff30bde8f08700bf1c0b400088
:0408180000000000dc
:020000040000fa
:020000040040ba
:10081c0024494ff0ff330b604b650b66c1f89030e9
:10082c00c1f8a03000220a614b618a63c1f818211b
:10083c0001f500710b604b650b66c1f89030c1f887
:10084c00a0300a614b618a63c1f8182101f500716f
:10085c000b604b650b66c1f89030c1f8a0300a6193
:10086c004b618a63c1f8182101f500710b604b656f
:10087c000b66c1f89030c1f8a0300a614b618a63f5
:10088c00c1f8182101f500710b604b650b66c1f8be
:10089c009030c1f8a0300a614b618a63c1f818210d
:0808ac00704700bf000e0e4072
:020000040000fa
:020000040040ba
:1008b40021490b6830b413b1204b1a6872bb20482d
:1008c40000250168c1b9426832b383680c30d3b1e2
:1008d4000139034613f8014b01f8014f1c1a9442e5
:1008e400f8d312f0030318bf012303eb920200ebc9
:1008f400820001680029e6d0846842680b460c3007
:100904003cb9002addd01a4403f8015b9342fbd1c1
:10091400d7e7002adcd1e4e730bc70478b42ced263
:10092400da430a4422f0030204321a44002143f851
:10093400041b9342fbd1c2e700004020000040208a
:040944008c014000e2
:020000040000fa
:020000040040ba
:1009480010b5054c237833b9044b13b10448aff301
:1009580000800123237010bd2804402000000000ff
:10096800000000000c4b43b10c480d4910b5aff323
:1009780000800c48036823b910bd0a48036833b9de
:100988007047094b002bf7d0bde810401847064bbd
:10099800002bf5d0184700bf000000000000000041
:0c09a8002c0440200000000000000000b3
:020000040000fa
:020000040040ba
:1009b400154a164b9a621a46936e13f0020ffbd037
:1009c400124a136b23f070031363936e13f0080f32
:1009d400fbd00e4a136b23f4407343f48073136308
:1009e400936e13f0080ffbd0084a136b23f0030334
:1009f40043f002031363936e13f0080ffbd04ff41c
:100a04004732024b1a617047013f182000060e401e
:020000040000fa
:020000040040ba
:100a140070b50f4e0f4d761bb61018bf002405d0cd
:100a2400013455f8043b9847a642f9d10a4e0b4dc0
:100a3400761bfff797fbb61018bf002406d00134cd
:100a440055f8043b9847a642f9d170bd70bd00bf6c
:100a540074014000740140007c01400074014000b6
:020000040000fa
:020000040040ba
:100a640038b50a4c0a4d641ba4100ad004f1804323
:100a7400013b05eb8305013c55f804399847002cec
:100a8400f9d1bde83840fff777bb00bf8c014000c7
:040a94008801400095
:020000040000fa
:020000040040ba
:100a98000649ca6822f4e0621204120c044b13439c
:100aa800cb60bff35f8f62b6704700bf00ed00e018
:040ab8000004fa0537
:020000040000fa
:020000040040ba
:100abc0008b500f019f8fff777fffff7a9fe4ff420
:100acc000043034a5360b03a5360fff7dfff08bda1
:040adc0000190e40af
:020000040000fa
:020000040040ba
:100ae000024b13b1024800f00db87047000000003f
:040af000650a400053
:020000040000fa
:020000040040ba
:100af400014a024b1a60704700060004000c0e40c5
:020000040000fa
:020000040040ba
:0c0b0400002301461a461846fff734bed5
:020000040000fa
:020000040040ba
:0a0b100008b50020fff7d2fffee752
:020000040000fa
:020000040040ba
:020b1a00fee7f4
:020000040000fa
:020000040040ba
:040b1c000000402075
:020000040000fa
:020000040040ba
:020b2000fee7ee
:020000040000fa
:020000040040ba
:020b2200fee7ec
:020000040000fa
:020000040040ba
:020b2400fee7ea
:020000040000fa
:020000040040ba
:020b2600fee7e8
:020000040000fa
:020000040040ba
:020b2800fee7e6
:020000040000fa
:020000040040ba
:020b2a00fee7e4
:020000040000fa
:02000004d0002a
:0400000002000000fa
:00000001FF
